:100000000C942A000C943F000C943F000C943F0089
:100010000C943F000C943F000C943F000C943F0064
:100020000C943F000C943F000C943F000C943F0054
:100030000C943F000C943F000C943F000C943F0044
:100040000C943F000C943F000C943F000C943F0034
:100050000C943F0011241FBECFE5D4E0DEBFCDBF1E
:1000600010E0A0E6B0E0E0E8F1E002C005900D92FB
:10007000A036B107D9F70E9441000C94BE000C9441
:1000800000008FEF84BB87BB81E088BB86E085BB27
:100090002FE788E391E0215080409040E1F700C0D5
:1000A000000082E088BB8BE585BB2FE788E391E009
:1000B000215080409040E1F700C0000084E088BB00
:1000C0008FE485BB2FE788E391E02150804090408A
:1000D000E1F700C0000088E088BB86E685BB2FE71B
:1000E00088E391E0215080409040E1F700C000009B
:1000F00080E188BB8DE685BB2FE788E391E0215046
:1001000080409040E1F700C0000080E288BB8DE7AE
:1001100085BB2FE788E391E0215080409040E1F7D4
:1001200000C0000080E488BB87E085BB2FE788E340
:1001300091E0215080409040E1F700C0000080E84D
:1001400088BB8FE785BB2FE788E391E02150804093
:100150009040E1F700C0000018BA2FE788E391E073
:10016000215080409040E1F700C0000088B3811129
:100170008BCF8FE385BB80E090E00895F894FFCFAC
:00000001FF
